{
  "transactions": [
    {
      "hash": "0x4a4ace624451c120eaff2a4c97bcb9a849d012cdcf6276a01284d0e7d6c28a09",
      "transactionType": "CALL",
      "contractName": null,
      "contractAddress": "0x9335ba1787d029adef7f169c4d40acfcc75def47",
      "function": "claim(address,uint256,bytes32[],uint8,bytes32,bytes32)",
      "arguments": [
        "0x13FFba08c4C6636062c4fD812A97a67EAfc2Fe2B",
        "25000000000000000000",
        "[0x0fd7c981d39bece61f7499702bf59b3114a90e66b51ba2c53abdf7b62986c00a, 0xe5ebd1e1b5a5478a944ecab36a9a954ac3b6b8216875f6524caa7a1d87096576]",
        "28",
        "0x80cd043c22d1db47710282292dec15a7c9c4f54cc0569329dba6840957258933",
        "0x646c2c7c8ea685dd5321625bc7105ca82207adcb5ec5014b38450468b57b1b6c"
      ],
      "transaction": {
        "from": "0x9a25776f75119e6345f4b04bee675b408e244485",
        "to": "0x9335ba1787d029adef7f169c4d40acfcc75def47",
        "gas": "0x1dc13",
        "value": "0x0",
        "input": "0x4497a16900000000000000000000000013ffba08c4c6636062c4fd812a97a67eafc2fe2b0000000000000000000000000000000000000000000000015af1d78b58c4000000000000000000000000000000000000000000000000000000000000000000c0000000000000000000000000000000000000000000000000000000000000001c80cd043c22d1db47710282292dec15a7c9c4f54cc0569329dba6840957258933646c2c7c8ea685dd5321625bc7105ca82207adcb5ec5014b38450468b57b1b6c00000000000000000000000000000000000000000000000000000000000000020fd7c981d39bece61f7499702bf59b3114a90e66b51ba2c53abdf7b62986c00ae5ebd1e1b5a5478a944ecab36a9a954ac3b6b8216875f6524caa7a1d87096576",
        "nonce": "0x9",
        "chainId": "0x66eee"
      },
      "additionalContracts": [],
      "isFixedGasLimit": false
    }
  ],
  "receipts": [
    {
      "status": "0x1",
      "cumulativeGasUsed": "0x166b8",
      "logs": [
        {
          "address": "0x9335ba1787d029adef7f169c4d40acfcc75def47",
          "topics": [
            "0xd8138f8a3f377c5259ca548e70e4c2de94f129f5a11036a15b69513cba2b426a"
          ],
          "data": "0x00000000000000000000000013ffba08c4c6636062c4fd812a97a67eafc2fe2b0000000000000000000000000000000000000000000000015af1d78b58c40000",
          "blockHash": "0xfd57fcf5a076bd06185e025768cba6a71c18ad44fdcc15cb37855a3d9cd48cdf",
          "blockNumber": "0x7eba88c",
          "transactionHash": "0x4a4ace624451c120eaff2a4c97bcb9a849d012cdcf6276a01284d0e7d6c28a09",
          "transactionIndex": "0x1",
          "logIndex": "0x0",
          "removed": false
        },
        {
          "address": "0x9f972b971e7708916c86d59d76a542457ee8073c",
          "topics": [
            "0xddf252ad1be2c89b69c2b068fc378daa952ba7f163c4a11628f55a4df523b3ef",
            "0x0000000000000000000000009335ba1787d029adef7f169c4d40acfcc75def47",
            "0x00000000000000000000000013ffba08c4c6636062c4fd812a97a67eafc2fe2b"
          ],
          "data": "0x0000000000000000000000000000000000000000000000015af1d78b58c40000",
          "blockHash": "0xfd57fcf5a076bd06185e025768cba6a71c18ad44fdcc15cb37855a3d9cd48cdf",
          "blockNumber": "0x7eba88c",
          "transactionHash": "0x4a4ace624451c120eaff2a4c97bcb9a849d012cdcf6276a01284d0e7d6c28a09",
          "transactionIndex": "0x1",
          "logIndex": "0x1",
          "removed": false
        }
      ],
      "logsBloom": "0x00000000000000000000000000000000000080000000000000000000000000000000000000000000000000000000000000000000000000000000000000000000000000000000000000000008000000000000000000081000000000000000000000000000000000000000000000000000000000000000000000200030000000000000000000000000010000000000000020000008000000000000000000000000000000000004000000000000000000004000040000000000040000000000000000000002000000000000000002000000000000000000000000000000000000000000000000000000000000000000000000000005000000000000000000000000",
      "type": "0x2",
      "transactionHash": "0x4a4ace624451c120eaff2a4c97bcb9a849d012cdcf6276a01284d0e7d6c28a09",
      "transactionIndex": "0x1",
      "blockHash": "0xfd57fcf5a076bd06185e025768cba6a71c18ad44fdcc15cb37855a3d9cd48cdf",
      "blockNumber": "0x7eba88c",
      "gasUsed": "0x166b8",
      "effectiveGasPrice": "0x5f5e100",
      "from": "0x9a25776f75119e6345f4b04bee675b408e244485",
      "to": "0x9335ba1787d029adef7f169c4d40acfcc75def47",
      "contractAddress": null,
      "gasUsedForL1": "0x13ea",
      "l1BlockNumber": "0x78c15d",
      "timeboosted": false
    }
  ],
  "libraries": [],
  "pending": [],
  "returns": {},
  "timestamp": 1742124145,
  "chain": 421614,
  "commit": "a527df7"
}